{
  "_format": "hh-sol-artifact-1",
  "contractName": "NFTMarketPlace",
  "sourceName": "contracts/MarketPlace.sol",
  "abi": [
    {
      "inputs": [],
      "stateMutability": "nonpayable",
      "type": "constructor"
    },
    {
      "inputs": [
        {
          "internalType": "address",
          "name": "sender",
          "type": "address"
        },
        {
          "internalType": "uint256",
          "name": "tokenId",
          "type": "uint256"
        },
        {
          "internalType": "address",
          "name": "owner",
          "type": "address"
        }
      ],
      "name": "ERC721IncorrectOwner",
      "type": "error"
    },
    {
      "inputs": [
        {
          "internalType": "address",
          "name": "operator",
          "type": "address"
        },
        {
          "internalType": "uint256",
          "name": "tokenId",
          "type": "uint256"
        }
      ],
      "name": "ERC721InsufficientApproval",
      "type": "error"
    },
    {
      "inputs": [
        {
          "internalType": "address",
          "name": "approver",
          "type": "address"
        }
      ],
      "name": "ERC721InvalidApprover",
      "type": "error"
    },
    {
      "inputs": [
        {
          "internalType": "address",
          "name": "operator",
          "type": "address"
        }
      ],
      "name": "ERC721InvalidOperator",
      "type": "error"
    },
    {
      "inputs": [
        {
          "internalType": "address",
          "name": "owner",
          "type": "address"
        }
      ],
      "name": "ERC721InvalidOwner",
      "type": "error"
    },
    {
      "inputs": [
        {
          "internalType": "address",
          "name": "receiver",
          "type": "address"
        }
      ],
      "name": "ERC721InvalidReceiver",
      "type": "error"
    },
    {
      "inputs": [
        {
          "internalType": "address",
          "name": "sender",
          "type": "address"
        }
      ],
      "name": "ERC721InvalidSender",
      "type": "error"
    },
    {
      "inputs": [
        {
          "internalType": "uint256",
          "name": "tokenId",
          "type": "uint256"
        }
      ],
      "name": "ERC721NonexistentToken",
      "type": "error"
    },
    {
      "inputs": [
        {
          "internalType": "address",
          "name": "owner",
          "type": "address"
        }
      ],
      "name": "OwnableInvalidOwner",
      "type": "error"
    },
    {
      "inputs": [
        {
          "internalType": "address",
          "name": "account",
          "type": "address"
        }
      ],
      "name": "OwnableUnauthorizedAccount",
      "type": "error"
    },
    {
      "anonymous": false,
      "inputs": [
        {
          "indexed": true,
          "internalType": "address",
          "name": "owner",
          "type": "address"
        },
        {
          "indexed": true,
          "internalType": "address",
          "name": "approved",
          "type": "address"
        },
        {
          "indexed": true,
          "internalType": "uint256",
          "name": "tokenId",
          "type": "uint256"
        }
      ],
      "name": "Approval",
      "type": "event"
    },
    {
      "anonymous": false,
      "inputs": [
        {
          "indexed": true,
          "internalType": "address",
          "name": "owner",
          "type": "address"
        },
        {
          "indexed": true,
          "internalType": "address",
          "name": "operator",
          "type": "address"
        },
        {
          "indexed": false,
          "internalType": "bool",
          "name": "approved",
          "type": "bool"
        }
      ],
      "name": "ApprovalForAll",
      "type": "event"
    },
    {
      "anonymous": false,
      "inputs": [
        {
          "indexed": true,
          "internalType": "address",
          "name": "previousOwner",
          "type": "address"
        },
        {
          "indexed": true,
          "internalType": "address",
          "name": "newOwner",
          "type": "address"
        }
      ],
      "name": "OwnershipTransferred",
      "type": "event"
    },
    {
      "anonymous": false,
      "inputs": [
        {
          "indexed": true,
          "internalType": "address",
          "name": "seller",
          "type": "address"
        },
        {
          "indexed": true,
          "internalType": "uint256",
          "name": "tokenId",
          "type": "uint256"
        },
        {
          "indexed": false,
          "internalType": "uint256",
          "name": "price",
          "type": "uint256"
        }
      ],
      "name": "TokenListed",
      "type": "event"
    },
    {
      "anonymous": false,
      "inputs": [
        {
          "indexed": true,
          "internalType": "address",
          "name": "owner",
          "type": "address"
        },
        {
          "indexed": true,
          "internalType": "uint256",
          "name": "tokenId",
          "type": "uint256"
        }
      ],
      "name": "TokenMinted",
      "type": "event"
    },
    {
      "anonymous": false,
      "inputs": [
        {
          "indexed": true,
          "internalType": "address",
          "name": "buyer",
          "type": "address"
        },
        {
          "indexed": true,
          "internalType": "uint256",
          "name": "tokenId",
          "type": "uint256"
        },
        {
          "indexed": false,
          "internalType": "uint256",
          "name": "price",
          "type": "uint256"
        }
      ],
      "name": "TokenSold",
      "type": "event"
    },
    {
      "anonymous": false,
      "inputs": [
        {
          "indexed": true,
          "internalType": "address",
          "name": "from",
          "type": "address"
        },
        {
          "indexed": true,
          "internalType": "address",
          "name": "to",
          "type": "address"
        },
        {
          "indexed": true,
          "internalType": "uint256",
          "name": "tokenId",
          "type": "uint256"
        }
      ],
      "name": "Transfer",
      "type": "event"
    },
    {
      "inputs": [
        {
          "internalType": "address",
          "name": "to",
          "type": "address"
        },
        {
          "internalType": "uint256",
          "name": "tokenId",
          "type": "uint256"
        }
      ],
      "name": "approve",
      "outputs": [],
      "stateMutability": "nonpayable",
      "type": "function"
    },
    {
      "inputs": [
        {
          "internalType": "address",
          "name": "owner",
          "type": "address"
        }
      ],
      "name": "balanceOf",
      "outputs": [
        {
          "internalType": "uint256",
          "name": "",
          "type": "uint256"
        }
      ],
      "stateMutability": "view",
      "type": "function"
    },
    {
      "inputs": [],
      "name": "createToken",
      "outputs": [],
      "stateMutability": "nonpayable",
      "type": "function"
    },
    {
      "inputs": [
        {
          "internalType": "uint256",
          "name": "tokenId",
          "type": "uint256"
        }
      ],
      "name": "fetchListingDetails",
      "outputs": [
        {
          "components": [
            {
              "internalType": "address",
              "name": "seller",
              "type": "address"
            },
            {
              "internalType": "uint256",
              "name": "price",
              "type": "uint256"
            },
            {
              "internalType": "bool",
              "name": "isForSale",
              "type": "bool"
            }
          ],
          "internalType": "struct NFTMarketPlace.Sale",
          "name": "",
          "type": "tuple"
        }
      ],
      "stateMutability": "view",
      "type": "function"
    },
    {
      "inputs": [
        {
          "internalType": "uint256",
          "name": "tokenId",
          "type": "uint256"
        }
      ],
      "name": "getApproved",
      "outputs": [
        {
          "internalType": "address",
          "name": "",
          "type": "address"
        }
      ],
      "stateMutability": "view",
      "type": "function"
    },
    {
      "inputs": [
        {
          "internalType": "address",
          "name": "owner",
          "type": "address"
        },
        {
          "internalType": "address",
          "name": "operator",
          "type": "address"
        }
      ],
      "name": "isApprovedForAll",
      "outputs": [
        {
          "internalType": "bool",
          "name": "",
          "type": "bool"
        }
      ],
      "stateMutability": "view",
      "type": "function"
    },
    {
      "inputs": [],
      "name": "name",
      "outputs": [
        {
          "internalType": "string",
          "name": "",
          "type": "string"
        }
      ],
      "stateMutability": "view",
      "type": "function"
    },
    {
      "inputs": [
        {
          "internalType": "uint256",
          "name": "",
          "type": "uint256"
        }
      ],
      "name": "nftListings",
      "outputs": [
        {
          "internalType": "address",
          "name": "seller",
          "type": "address"
        },
        {
          "internalType": "uint256",
          "name": "price",
          "type": "uint256"
        },
        {
          "internalType": "bool",
          "name": "isForSale",
          "type": "bool"
        }
      ],
      "stateMutability": "view",
      "type": "function"
    },
    {
      "inputs": [],
      "name": "owner",
      "outputs": [
        {
          "internalType": "address",
          "name": "",
          "type": "address"
        }
      ],
      "stateMutability": "view",
      "type": "function"
    },
    {
      "inputs": [
        {
          "internalType": "uint256",
          "name": "tokenId",
          "type": "uint256"
        }
      ],
      "name": "ownerOf",
      "outputs": [
        {
          "internalType": "address",
          "name": "",
          "type": "address"
        }
      ],
      "stateMutability": "view",
      "type": "function"
    },
    {
      "inputs": [
        {
          "internalType": "uint256",
          "name": "tokenId",
          "type": "uint256"
        }
      ],
      "name": "purchaseToken",
      "outputs": [],
      "stateMutability": "payable",
      "type": "function"
    },
    {
      "inputs": [
        {
          "internalType": "uint256",
          "name": "tokenId",
          "type": "uint256"
        },
        {
          "internalType": "uint256",
          "name": "price",
          "type": "uint256"
        }
      ],
      "name": "putTokenForSale",
      "outputs": [],
      "stateMutability": "nonpayable",
      "type": "function"
    },
    {
      "inputs": [
        {
          "internalType": "uint256",
          "name": "tokenId",
          "type": "uint256"
        }
      ],
      "name": "removeTokenFromSale",
      "outputs": [],
      "stateMutability": "nonpayable",
      "type": "function"
    },
    {
      "inputs": [],
      "name": "renounceOwnership",
      "outputs": [],
      "stateMutability": "nonpayable",
      "type": "function"
    },
    {
      "inputs": [
        {
          "internalType": "address",
          "name": "from",
          "type": "address"
        },
        {
          "internalType": "address",
          "name": "to",
          "type": "address"
        },
        {
          "internalType": "uint256",
          "name": "tokenId",
          "type": "uint256"
        }
      ],
      "name": "safeTransferFrom",
      "outputs": [],
      "stateMutability": "nonpayable",
      "type": "function"
    },
    {
      "inputs": [
        {
          "internalType": "address",
          "name": "from",
          "type": "address"
        },
        {
          "internalType": "address",
          "name": "to",
          "type": "address"
        },
        {
          "internalType": "uint256",
          "name": "tokenId",
          "type": "uint256"
        },
        {
          "internalType": "bytes",
          "name": "data",
          "type": "bytes"
        }
      ],
      "name": "safeTransferFrom",
      "outputs": [],
      "stateMutability": "nonpayable",
      "type": "function"
    },
    {
      "inputs": [
        {
          "internalType": "address",
          "name": "operator",
          "type": "address"
        },
        {
          "internalType": "bool",
          "name": "approved",
          "type": "bool"
        }
      ],
      "name": "setApprovalForAll",
      "outputs": [],
      "stateMutability": "nonpayable",
      "type": "function"
    },
    {
      "inputs": [
        {
          "internalType": "bytes4",
          "name": "interfaceId",
          "type": "bytes4"
        }
      ],
      "name": "supportsInterface",
      "outputs": [
        {
          "internalType": "bool",
          "name": "",
          "type": "bool"
        }
      ],
      "stateMutability": "view",
      "type": "function"
    },
    {
      "inputs": [],
      "name": "symbol",
      "outputs": [
        {
          "internalType": "string",
          "name": "",
          "type": "string"
        }
      ],
      "stateMutability": "view",
      "type": "function"
    },
    {
      "inputs": [],
      "name": "tokenCounter",
      "outputs": [
        {
          "internalType": "uint256",
          "name": "",
          "type": "uint256"
        }
      ],
      "stateMutability": "view",
      "type": "function"
    },
    {
      "inputs": [
        {
          "internalType": "uint256",
          "name": "tokenId",
          "type": "uint256"
        }
      ],
      "name": "tokenURI",
      "outputs": [
        {
          "internalType": "string",
          "name": "",
          "type": "string"
        }
      ],
      "stateMutability": "view",
      "type": "function"
    },
    {
      "inputs": [
        {
          "internalType": "address",
          "name": "from",
          "type": "address"
        },
        {
          "internalType": "address",
          "name": "to",
          "type": "address"
        },
        {
          "internalType": "uint256",
          "name": "tokenId",
          "type": "uint256"
        }
      ],
      "name": "transferFrom",
      "outputs": [],
      "stateMutability": "nonpayable",
      "type": "function"
    },
    {
      "inputs": [
        {
          "internalType": "address",
          "name": "newOwner",
          "type": "address"
        }
      ],
      "name": "transferOwnership",
      "outputs": [],
      "stateMutability": "nonpayable",
      "type": "function"
    },
    {
      "stateMutability": "payable",
      "type": "receive"
    }
  ],
  "bytecode": "0x60806040523480156200001157600080fd5b50336040518060400160405280600c81526020017f506f6c6172426561724e465400000000000000000000000000000000000000008152506040518060400160405280600381526020017f5042520000000000000000000000000000000000000000000000000000000000815250816000908162000090919062000472565b508060019081620000a2919062000472565b505050600073ffffffffffffffffffffffffffffffffffffffff168173ffffffffffffffffffffffffffffffffffffffff16036200011a5760006040517f1e4fbdf70000000000000000000000000000000000000000000000000000000081526004016200011191906200059e565b60405180910390fd5b6200012b816200013260201b60201c565b50620005bb565b6000600660009054906101000a900473ffffffffffffffffffffffffffffffffffffffff16905081600660006101000a81548173ffffffffffffffffffffffffffffffffffffffff021916908373ffffffffffffffffffffffffffffffffffffffff1602179055508173ffffffffffffffffffffffffffffffffffffffff168173ffffffffffffffffffffffffffffffffffffffff167f8be0079c531659141344cd1fd0a4f28419497f9722a3daafe3b4186f6b6457e060405160405180910390a35050565b600081519050919050565b7f4e487b7100000000000000000000000000000000000000000000000000000000600052604160045260246000fd5b7f4e487b7100000000000000000000000000000000000000000000000000000000600052602260045260246000fd5b600060028204905060018216806200027a57607f821691505b60208210810362000290576200028f62000232565b5b50919050565b60008190508160005260206000209050919050565b60006020601f8301049050919050565b600082821b905092915050565b600060088302620002fa7fffffffffffffffffffffffffffffffffffffffffffffffffffffffffffffffff82620002bb565b620003068683620002bb565b95508019841693508086168417925050509392505050565b6000819050919050565b6000819050919050565b6000620003536200034d62000347846200031e565b62000328565b6200031e565b9050919050565b6000819050919050565b6200036f8362000332565b620003876200037e826200035a565b848454620002c8565b825550505050565b600090565b6200039e6200038f565b620003ab81848462000364565b505050565b5b81811015620003d357620003c760008262000394565b600181019050620003b1565b5050565b601f8211156200042257620003ec8162000296565b620003f784620002ab565b8101602085101562000407578190505b6200041f6200041685620002ab565b830182620003b0565b50505b505050565b600082821c905092915050565b6000620004476000198460080262000427565b1980831691505092915050565b600062000462838362000434565b9150826002028217905092915050565b6200047d82620001f8565b67ffffffffffffffff81111562000499576200049862000203565b5b620004a5825462000261565b620004b2828285620003d7565b600060209050601f831160018114620004ea5760008415620004d5578287015190505b620004e1858262000454565b86555062000551565b601f198416620004fa8662000296565b60005b828110156200052457848901518255600182019150602085019450602081019050620004fd565b8683101562000544578489015162000540601f89168262000434565b8355505b6001600288020188555050505b505050505050565b600073ffffffffffffffffffffffffffffffffffffffff82169050919050565b6000620005868262000559565b9050919050565b620005988162000579565b82525050565b6000602082019050620005b560008301846200058d565b92915050565b61311380620005cb6000396000f3fe6080604052600436106101445760003560e01c806395d89b41116100b6578063c87b56dd1161006f578063c87b56dd1461045b578063d082e38114610498578063e8cdea11146104c3578063e985e9c5146104ec578063ee88248914610529578063f2fde38b146105525761014e565b806395d89b411461036e5780639cbf9e3614610399578063a22cb465146103b0578063b88d4fde146103d9578063c2db2c4214610402578063c64177e61461041e5761014e565b806342842e0e1161010857806342842e0e1461024a5780636352211e1461027357806370a08231146102b0578063715018a6146102ed5780637c5bb03d146103045780638da5cb5b146103435761014e565b806301ffc9a71461015357806306fdde0314610190578063081812fc146101bb578063095ea7b3146101f857806323b872dd146102215761014e565b3661014e57600080fd5b600080fd5b34801561015f57600080fd5b5061017a600480360381019061017591906123f6565b61057b565b604051610187919061243e565b60405180910390f35b34801561019c57600080fd5b506101a561065d565b6040516101b291906124e9565b60405180910390f35b3480156101c757600080fd5b506101e260048036038101906101dd9190612541565b6106ef565b6040516101ef91906125af565b60405180910390f35b34801561020457600080fd5b5061021f600480360381019061021a91906125f6565b61070b565b005b34801561022d57600080fd5b5061024860048036038101906102439190612636565b610721565b005b34801561025657600080fd5b50610271600480360381019061026c9190612636565b610823565b005b34801561027f57600080fd5b5061029a60048036038101906102959190612541565b610843565b6040516102a791906125af565b60405180910390f35b3480156102bc57600080fd5b506102d760048036038101906102d29190612689565b610855565b6040516102e491906126c5565b60405180910390f35b3480156102f957600080fd5b5061030261090f565b005b34801561031057600080fd5b5061032b60048036038101906103269190612541565b610923565b60405161033a939291906126e0565b60405180910390f35b34801561034f57600080fd5b5061035861097a565b60405161036591906125af565b60405180910390f35b34801561037a57600080fd5b506103836109a4565b60405161039091906124e9565b60405180910390f35b3480156103a557600080fd5b506103ae610a36565b005b3480156103bc57600080fd5b506103d760048036038101906103d29190612743565b610aa6565b005b3480156103e557600080fd5b5061040060048036038101906103fb91906128b8565b610abc565b005b61041c60048036038101906104179190612541565b610ae1565b005b34801561042a57600080fd5b5061044560048036038101906104409190612541565b610d7a565b60405161045291906129aa565b60405180910390f35b34801561046757600080fd5b50610482600480360381019061047d9190612541565b610e22565b60405161048f91906124e9565b60405180910390f35b3480156104a457600080fd5b506104ad610e8b565b6040516104ba91906126c5565b60405180910390f35b3480156104cf57600080fd5b506104ea60048036038101906104e59190612541565b610e91565b005b3480156104f857600080fd5b50610513600480360381019061050e91906129c5565b610fc6565b604051610520919061243e565b60405180910390f35b34801561053557600080fd5b50610550600480360381019061054b9190612a05565b61105a565b005b34801561055e57600080fd5b5061057960048036038101906105749190612689565b61128b565b005b60007f80ac58cd000000000000000000000000000000000000000000000000000000007bffffffffffffffffffffffffffffffffffffffffffffffffffffffff1916827bffffffffffffffffffffffffffffffffffffffffffffffffffffffff1916148061064657507f5b5e139f000000000000000000000000000000000000000000000000000000007bffffffffffffffffffffffffffffffffffffffffffffffffffffffff1916827bffffffffffffffffffffffffffffffffffffffffffffffffffffffff1916145b80610656575061065582611311565b5b9050919050565b60606000805461066c90612a74565b80601f016020809104026020016040519081016040528092919081815260200182805461069890612a74565b80156106e55780601f106106ba576101008083540402835291602001916106e5565b820191906000526020600020905b8154815290600101906020018083116106c857829003601f168201915b5050505050905090565b60006106fa8261137b565b5061070482611403565b9050919050565b61071d8282610718611440565b611448565b5050565b600073ffffffffffffffffffffffffffffffffffffffff168273ffffffffffffffffffffffffffffffffffffffff16036107935760006040517f64a0ae9200000000000000000000000000000000000000000000000000000000815260040161078a91906125af565b60405180910390fd5b60006107a783836107a2611440565b61145a565b90508373ffffffffffffffffffffffffffffffffffffffff168173ffffffffffffffffffffffffffffffffffffffff161461081d578382826040517f64283d7b00000000000000000000000000000000000000000000000000000000815260040161081493929190612aa5565b60405180910390fd5b50505050565b61083e83838360405180602001604052806000815250610abc565b505050565b600061084e8261137b565b9050919050565b60008073ffffffffffffffffffffffffffffffffffffffff168273ffffffffffffffffffffffffffffffffffffffff16036108c85760006040517f89c62b640000000000000000000000000000000000000000000000000000000081526004016108bf91906125af565b60405180910390fd5b600360008373ffffffffffffffffffffffffffffffffffffffff1673ffffffffffffffffffffffffffffffffffffffff168152602001908152602001600020549050919050565b610917611674565b61092160006116fb565b565b60076020528060005260406000206000915090508060000160009054906101000a900473ffffffffffffffffffffffffffffffffffffffff16908060010154908060020160009054906101000a900460ff16905083565b6000600660009054906101000a900473ffffffffffffffffffffffffffffffffffffffff16905090565b6060600180546109b390612a74565b80601f01602080910402602001604051908101604052809291908181526020018280546109df90612a74565b8015610a2c5780601f10610a0157610100808354040283529160200191610a2c565b820191906000526020600020905b815481529060010190602001808311610a0f57829003601f168201915b5050505050905090565b6000600854905060086000815480929190610a5090612b0b565b9190505550610a5f33826117c1565b803373ffffffffffffffffffffffffffffffffffffffff167fb9144c96c86541f6fa89c9f2f02495cccf4b08cd6643e26d34ee00aa586558a860405160405180910390a350565b610ab8610ab1611440565b83836117df565b5050565b610ac7848484610721565b610adb610ad2611440565b8585858561194e565b50505050565b6000600760008381526020019081526020016000206040518060600160405290816000820160009054906101000a900473ffffffffffffffffffffffffffffffffffffffff1673ffffffffffffffffffffffffffffffffffffffff1673ffffffffffffffffffffffffffffffffffffffff168152602001600182015481526020016002820160009054906101000a900460ff16151515158152505090508060400151610bc2576040517f08c379a0000000000000000000000000000000000000000000000000000000008152600401610bb990612b9f565b60405180910390fd5b80602001513414610c08576040517f08c379a0000000000000000000000000000000000000000000000000000000008152600401610bff90612c0b565b60405180910390fd5b60008160000151905060076000848152602001908152602001600020600080820160006101000a81549073ffffffffffffffffffffffffffffffffffffffff021916905560018201600090556002820160006101000a81549060ff0219169055505060008173ffffffffffffffffffffffffffffffffffffffff1634604051610c9090612c5c565b60006040518083038185875af1925050503d8060008114610ccd576040519150601f19603f3d011682016040523d82523d6000602084013e610cd2565b606091505b5050905080610d16576040517f08c379a0000000000000000000000000000000000000000000000000000000008152600401610d0d90612cbd565b60405180910390fd5b610d21823386611aff565b833373ffffffffffffffffffffffffffffffffffffffff167f35ea94addbc62df281ade49cc2ad9b3d9259166170cf702928b4ddc045f7256e8560200151604051610d6c91906126c5565b60405180910390a350505050565b610d82612351565b600760008381526020019081526020016000206040518060600160405290816000820160009054906101000a900473ffffffffffffffffffffffffffffffffffffffff1673ffffffffffffffffffffffffffffffffffffffff1673ffffffffffffffffffffffffffffffffffffffff168152602001600182015481526020016002820160009054906101000a900460ff1615151515815250509050919050565b6060610e2d8261137b565b506000610e38611c6c565b90506000815111610e585760405180602001604052806000815250610e83565b80610e6284611c8c565b604051602001610e73929190612d19565b6040516020818303038152906040525b915050919050565b60085481565b3373ffffffffffffffffffffffffffffffffffffffff16610eb182610843565b73ffffffffffffffffffffffffffffffffffffffff1614610f07576040517f08c379a0000000000000000000000000000000000000000000000000000000008152600401610efe90612daf565b60405180910390fd5b6007600082815260200190815260200160002060020160009054906101000a900460ff16610f6a576040517f08c379a0000000000000000000000000000000000000000000000000000000008152600401610f6190612e1b565b60405180910390fd5b60076000828152602001908152602001600020600080820160006101000a81549073ffffffffffffffffffffffffffffffffffffffff021916905560018201600090556002820160006101000a81549060ff0219169055505050565b6000600560008473ffffffffffffffffffffffffffffffffffffffff1673ffffffffffffffffffffffffffffffffffffffff16815260200190815260200160002060008373ffffffffffffffffffffffffffffffffffffffff1673ffffffffffffffffffffffffffffffffffffffff16815260200190815260200160002060009054906101000a900460ff16905092915050565b600015156007600084815260200190815260200160002060020160009054906101000a900460ff161515146110c4576040517f08c379a00000000000000000000000000000000000000000000000000000000081526004016110bb90612ead565b60405180910390fd5b3373ffffffffffffffffffffffffffffffffffffffff166110e483610843565b73ffffffffffffffffffffffffffffffffffffffff161461113a576040517f08c379a000000000000000000000000000000000000000000000000000000000815260040161113190612daf565b60405180910390fd5b6000811161117d576040517f08c379a000000000000000000000000000000000000000000000000000000000815260040161117490612f19565b60405180910390fd5b60405180606001604052803373ffffffffffffffffffffffffffffffffffffffff168152602001828152602001600115158152506007600084815260200190815260200160002060008201518160000160006101000a81548173ffffffffffffffffffffffffffffffffffffffff021916908373ffffffffffffffffffffffffffffffffffffffff1602179055506020820151816001015560408201518160020160006101000a81548160ff021916908315150217905550905050813373ffffffffffffffffffffffffffffffffffffffff167f5dc96537cbae524775a674b6a810d9a1ba04a9e279f172d156b352151394677a8360405161127f91906126c5565b60405180910390a35050565b611293611674565b600073ffffffffffffffffffffffffffffffffffffffff168173ffffffffffffffffffffffffffffffffffffffff16036113055760006040517f1e4fbdf70000000000000000000000000000000000000000000000000000000081526004016112fc91906125af565b60405180910390fd5b61130e816116fb565b50565b60007f01ffc9a7000000000000000000000000000000000000000000000000000000007bffffffffffffffffffffffffffffffffffffffffffffffffffffffff1916827bffffffffffffffffffffffffffffffffffffffffffffffffffffffff1916149050919050565b60008061138783611d5a565b9050600073ffffffffffffffffffffffffffffffffffffffff168173ffffffffffffffffffffffffffffffffffffffff16036113fa57826040517f7e2732890000000000000000000000000000000000000000000000000000000081526004016113f191906126c5565b60405180910390fd5b80915050919050565b60006004600083815260200190815260200160002060009054906101000a900473ffffffffffffffffffffffffffffffffffffffff169050919050565b600033905090565b6114558383836001611d97565b505050565b60008061146684611d5a565b9050600073ffffffffffffffffffffffffffffffffffffffff168373ffffffffffffffffffffffffffffffffffffffff16146114a8576114a7818486611f5c565b5b600073ffffffffffffffffffffffffffffffffffffffff168173ffffffffffffffffffffffffffffffffffffffff1614611539576114ea600085600080611d97565b6001600360008373ffffffffffffffffffffffffffffffffffffffff1673ffffffffffffffffffffffffffffffffffffffff168152602001908152602001600020600082825403925050819055505b600073ffffffffffffffffffffffffffffffffffffffff168573ffffffffffffffffffffffffffffffffffffffff16146115bc576001600360008773ffffffffffffffffffffffffffffffffffffffff1673ffffffffffffffffffffffffffffffffffffffff168152602001908152602001600020600082825401925050819055505b846002600086815260200190815260200160002060006101000a81548173ffffffffffffffffffffffffffffffffffffffff021916908373ffffffffffffffffffffffffffffffffffffffff160217905550838573ffffffffffffffffffffffffffffffffffffffff168273ffffffffffffffffffffffffffffffffffffffff167fddf252ad1be2c89b69c2b068fc378daa952ba7f163c4a11628f55a4df523b3ef60405160405180910390a4809150509392505050565b61167c611440565b73ffffffffffffffffffffffffffffffffffffffff1661169a61097a565b73ffffffffffffffffffffffffffffffffffffffff16146116f9576116bd611440565b6040517f118cdaa70000000000000000000000000000000000000000000000000000000081526004016116f091906125af565b60405180910390fd5b565b6000600660009054906101000a900473ffffffffffffffffffffffffffffffffffffffff16905081600660006101000a81548173ffffffffffffffffffffffffffffffffffffffff021916908373ffffffffffffffffffffffffffffffffffffffff1602179055508173ffffffffffffffffffffffffffffffffffffffff168173ffffffffffffffffffffffffffffffffffffffff167f8be0079c531659141344cd1fd0a4f28419497f9722a3daafe3b4186f6b6457e060405160405180910390a35050565b6117db828260405180602001604052806000815250612020565b5050565b600073ffffffffffffffffffffffffffffffffffffffff168273ffffffffffffffffffffffffffffffffffffffff160361185057816040517f5b08ba1800000000000000000000000000000000000000000000000000000000815260040161184791906125af565b60405180910390fd5b80600560008573ffffffffffffffffffffffffffffffffffffffff1673ffffffffffffffffffffffffffffffffffffffff16815260200190815260200160002060008473ffffffffffffffffffffffffffffffffffffffff1673ffffffffffffffffffffffffffffffffffffffff16815260200190815260200160002060006101000a81548160ff0219169083151502179055508173ffffffffffffffffffffffffffffffffffffffff168373ffffffffffffffffffffffffffffffffffffffff167f17307eab39ab6107e8899845ad3d59bd9653f200f220920489ca2b5937696c3183604051611941919061243e565b60405180910390a3505050565b60008373ffffffffffffffffffffffffffffffffffffffff163b1115611af8578273ffffffffffffffffffffffffffffffffffffffff1663150b7a02868685856040518563ffffffff1660e01b81526004016119ad9493929190612f8e565b6020604051808303816000875af19250505080156119e957506040513d601f19601f820116820180604052508101906119e69190612fef565b60015b611a6d573d8060008114611a19576040519150601f19603f3d011682016040523d82523d6000602084013e611a1e565b606091505b506000815103611a6557836040517f64a0ae92000000000000000000000000000000000000000000000000000000008152600401611a5c91906125af565b60405180910390fd5b805181602001fd5b63150b7a0260e01b7bffffffffffffffffffffffffffffffffffffffffffffffffffffffff1916817bffffffffffffffffffffffffffffffffffffffffffffffffffffffff191614611af657836040517f64a0ae92000000000000000000000000000000000000000000000000000000008152600401611aed91906125af565b60405180910390fd5b505b5050505050565b600073ffffffffffffffffffffffffffffffffffffffff168273ffffffffffffffffffffffffffffffffffffffff1603611b715760006040517f64a0ae92000000000000000000000000000000000000000000000000000000008152600401611b6891906125af565b60405180910390fd5b6000611b7f8383600061145a565b9050600073ffffffffffffffffffffffffffffffffffffffff168173ffffffffffffffffffffffffffffffffffffffff1603611bf257816040517f7e273289000000000000000000000000000000000000000000000000000000008152600401611be991906126c5565b60405180910390fd5b8373ffffffffffffffffffffffffffffffffffffffff168173ffffffffffffffffffffffffffffffffffffffff1614611c66578382826040517f64283d7b000000000000000000000000000000000000000000000000000000008152600401611c5d93929190612aa5565b60405180910390fd5b50505050565b60606040518060a001604052806069815260200161307560699139905090565b606060006001611c9b84612044565b01905060008167ffffffffffffffff811115611cba57611cb961278d565b5b6040519080825280601f01601f191660200182016040528015611cec5781602001600182028036833780820191505090505b509050600082602001820190505b600115611d4f578080600190039150507f3031323334353637383961626364656600000000000000000000000000000000600a86061a8153600a8581611d4357611d4261301c565b5b04945060008503611cfa575b819350505050919050565b60006002600083815260200190815260200160002060009054906101000a900473ffffffffffffffffffffffffffffffffffffffff169050919050565b8080611dd05750600073ffffffffffffffffffffffffffffffffffffffff168273ffffffffffffffffffffffffffffffffffffffff1614155b15611f04576000611de08461137b565b9050600073ffffffffffffffffffffffffffffffffffffffff168373ffffffffffffffffffffffffffffffffffffffff1614158015611e4b57508273ffffffffffffffffffffffffffffffffffffffff168173ffffffffffffffffffffffffffffffffffffffff1614155b8015611e5e5750611e5c8184610fc6565b155b15611ea057826040517fa9fbf51f000000000000000000000000000000000000000000000000000000008152600401611e9791906125af565b60405180910390fd5b8115611f0257838573ffffffffffffffffffffffffffffffffffffffff168273ffffffffffffffffffffffffffffffffffffffff167f8c5be1e5ebec7d5bd14f71427d1e84f3dd0314c0f7b2291e5b200ac8c7c3b92560405160405180910390a45b505b836004600085815260200190815260200160002060006101000a81548173ffffffffffffffffffffffffffffffffffffffff021916908373ffffffffffffffffffffffffffffffffffffffff16021790555050505050565b611f67838383612197565b61201b57600073ffffffffffffffffffffffffffffffffffffffff168373ffffffffffffffffffffffffffffffffffffffff1603611fdc57806040517f7e273289000000000000000000000000000000000000000000000000000000008152600401611fd391906126c5565b60405180910390fd5b81816040517f177e802f00000000000000000000000000000000000000000000000000000000815260040161201292919061304b565b60405180910390fd5b505050565b61202a8383612258565b61203f612035611440565b600085858561194e565b505050565b600080600090507a184f03e93ff9f4daa797ed6e38ed64bf6a1f01000000000000000083106120a2577a184f03e93ff9f4daa797ed6e38ed64bf6a1f01000000000000000083816120985761209761301c565b5b0492506040810190505b6d04ee2d6d415b85acef810000000083106120df576d04ee2d6d415b85acef810000000083816120d5576120d461301c565b5b0492506020810190505b662386f26fc10000831061210e57662386f26fc1000083816121045761210361301c565b5b0492506010810190505b6305f5e1008310612137576305f5e100838161212d5761212c61301c565b5b0492506008810190505b612710831061215c5761271083816121525761215161301c565b5b0492506004810190505b6064831061217f57606483816121755761217461301c565b5b0492506002810190505b600a831061218e576001810190505b80915050919050565b60008073ffffffffffffffffffffffffffffffffffffffff168373ffffffffffffffffffffffffffffffffffffffff161415801561224f57508273ffffffffffffffffffffffffffffffffffffffff168473ffffffffffffffffffffffffffffffffffffffff161480612210575061220f8484610fc6565b5b8061224e57508273ffffffffffffffffffffffffffffffffffffffff1661223683611403565b73ffffffffffffffffffffffffffffffffffffffff16145b5b90509392505050565b600073ffffffffffffffffffffffffffffffffffffffff168273ffffffffffffffffffffffffffffffffffffffff16036122ca5760006040517f64a0ae920000000000000000000000000000000000000000000000000000000081526004016122c191906125af565b60405180910390fd5b60006122d88383600061145a565b9050600073ffffffffffffffffffffffffffffffffffffffff168173ffffffffffffffffffffffffffffffffffffffff161461234c5760006040517f73c6ac6e00000000000000000000000000000000000000000000000000000000815260040161234391906125af565b60405180910390fd5b505050565b6040518060600160405280600073ffffffffffffffffffffffffffffffffffffffff168152602001600081526020016000151581525090565b6000604051905090565b600080fd5b600080fd5b60007fffffffff0000000000000000000000000000000000000000000000000000000082169050919050565b6123d38161239e565b81146123de57600080fd5b50565b6000813590506123f0816123ca565b92915050565b60006020828403121561240c5761240b612394565b5b600061241a848285016123e1565b91505092915050565b60008115159050919050565b61243881612423565b82525050565b6000602082019050612453600083018461242f565b92915050565b600081519050919050565b600082825260208201905092915050565b60005b83811015612493578082015181840152602081019050612478565b60008484015250505050565b6000601f19601f8301169050919050565b60006124bb82612459565b6124c58185612464565b93506124d5818560208601612475565b6124de8161249f565b840191505092915050565b6000602082019050818103600083015261250381846124b0565b905092915050565b6000819050919050565b61251e8161250b565b811461252957600080fd5b50565b60008135905061253b81612515565b92915050565b60006020828403121561255757612556612394565b5b60006125658482850161252c565b91505092915050565b600073ffffffffffffffffffffffffffffffffffffffff82169050919050565b60006125998261256e565b9050919050565b6125a98161258e565b82525050565b60006020820190506125c460008301846125a0565b92915050565b6125d38161258e565b81146125de57600080fd5b50565b6000813590506125f0816125ca565b92915050565b6000806040838503121561260d5761260c612394565b5b600061261b858286016125e1565b925050602061262c8582860161252c565b9150509250929050565b60008060006060848603121561264f5761264e612394565b5b600061265d868287016125e1565b935050602061266e868287016125e1565b925050604061267f8682870161252c565b9150509250925092565b60006020828403121561269f5761269e612394565b5b60006126ad848285016125e1565b91505092915050565b6126bf8161250b565b82525050565b60006020820190506126da60008301846126b6565b92915050565b60006060820190506126f560008301866125a0565b61270260208301856126b6565b61270f604083018461242f565b949350505050565b61272081612423565b811461272b57600080fd5b50565b60008135905061273d81612717565b92915050565b6000806040838503121561275a57612759612394565b5b6000612768858286016125e1565b92505060206127798582860161272e565b9150509250929050565b600080fd5b600080fd5b7f4e487b7100000000000000000000000000000000000000000000000000000000600052604160045260246000fd5b6127c58261249f565b810181811067ffffffffffffffff821117156127e4576127e361278d565b5b80604052505050565b60006127f761238a565b905061280382826127bc565b919050565b600067ffffffffffffffff8211156128235761282261278d565b5b61282c8261249f565b9050602081019050919050565b82818337600083830152505050565b600061285b61285684612808565b6127ed565b90508281526020810184848401111561287757612876612788565b5b612882848285612839565b509392505050565b600082601f83011261289f5761289e612783565b5b81356128af848260208601612848565b91505092915050565b600080600080608085870312156128d2576128d1612394565b5b60006128e0878288016125e1565b94505060206128f1878288016125e1565b93505060406129028782880161252c565b925050606085013567ffffffffffffffff81111561292357612922612399565b5b61292f8782880161288a565b91505092959194509250565b6129448161258e565b82525050565b6129538161250b565b82525050565b61296281612423565b82525050565b60608201600082015161297e600085018261293b565b506020820151612991602085018261294a565b5060408201516129a46040850182612959565b50505050565b60006060820190506129bf6000830184612968565b92915050565b600080604083850312156129dc576129db612394565b5b60006129ea858286016125e1565b92505060206129fb858286016125e1565b9150509250929050565b60008060408385031215612a1c57612a1b612394565b5b6000612a2a8582860161252c565b9250506020612a3b8582860161252c565b9150509250929050565b7f4e487b7100000000000000000000000000000000000000000000000000000000600052602260045260246000fd5b60006002820490506001821680612a8c57607f821691505b602082108103612a9f57612a9e612a45565b5b50919050565b6000606082019050612aba60008301866125a0565b612ac760208301856126b6565b612ad460408301846125a0565b949350505050565b7f4e487b7100000000000000000000000000000000000000000000000000000000600052601160045260246000fd5b6000612b168261250b565b91507fffffffffffffffffffffffffffffffffffffffffffffffffffffffffffffffff8203612b4857612b47612adc565b5b600182019050919050565b7f54686973204e4654206973206e6f7420666f722073616c650000000000000000600082015250565b6000612b89601883612464565b9150612b9482612b53565b602082019050919050565b60006020820190508181036000830152612bb881612b7c565b9050919050565b7f496e636f72726563742076616c75652073656e74000000000000000000000000600082015250565b6000612bf5601483612464565b9150612c0082612bbf565b602082019050919050565b60006020820190508181036000830152612c2481612be8565b9050919050565b600081905092915050565b50565b6000612c46600083612c2b565b9150612c5182612c36565b600082019050919050565b6000612c6782612c39565b9150819050919050565b7f5472616e73666572206661696c65640000000000000000000000000000000000600082015250565b6000612ca7600f83612464565b9150612cb282612c71565b602082019050919050565b60006020820190508181036000830152612cd681612c9a565b9050919050565b600081905092915050565b6000612cf382612459565b612cfd8185612cdd565b9350612d0d818560208601612475565b80840191505092915050565b6000612d258285612ce8565b9150612d318284612ce8565b91508190509392505050565b7f596f7520617265206e6f7420746865206f776e6572206f662074686973204e4660008201527f5400000000000000000000000000000000000000000000000000000000000000602082015250565b6000612d99602183612464565b9150612da482612d3d565b604082019050919050565b60006020820190508181036000830152612dc881612d8c565b9050919050565b7f54686973204e4654206973206e6f74206c697374656420666f722073616c6500600082015250565b6000612e05601f83612464565b9150612e1082612dcf565b602082019050919050565b60006020820190508181036000830152612e3481612df8565b9050919050565b7f54686973204e465420697320616c7265616479206c697374656420666f72207360008201527f616c650000000000000000000000000000000000000000000000000000000000602082015250565b6000612e97602383612464565b9150612ea282612e3b565b604082019050919050565b60006020820190508181036000830152612ec681612e8a565b9050919050565b7f5072696365206d7573742062652067726561746572207468616e207a65726f00600082015250565b6000612f03601f83612464565b9150612f0e82612ecd565b602082019050919050565b60006020820190508181036000830152612f3281612ef6565b9050919050565b600081519050919050565b600082825260208201905092915050565b6000612f6082612f39565b612f6a8185612f44565b9350612f7a818560208601612475565b612f838161249f565b840191505092915050565b6000608082019050612fa360008301876125a0565b612fb060208301866125a0565b612fbd60408301856126b6565b8181036060830152612fcf8184612f55565b905095945050505050565b600081519050612fe9816123ca565b92915050565b60006020828403121561300557613004612394565b5b600061301384828501612fda565b91505092915050565b7f4e487b7100000000000000000000000000000000000000000000000000000000600052601260045260246000fd5b600060408201905061306060008301856125a0565b61306d60208301846126b6565b939250505056fe68747470733a2f2f706c756d2d696d70726573736976652d6b696e676669736865722d3235302e6d7970696e6174612e636c6f75642f697066732f516d61694136637331385159354632794e76466b5a6263774b656644795a6956665a654e5366656258326161574ba2646970667358221220ee0e6f2f7bec6e79e639e0233963ed3799c114bde08e4206ee6dd5788cdcf8a764736f6c63430008160033",
  "linkReferences": {},
  "deployedLinkReferences": {}
}