{
  "_format": "hh-sol-artifact-1",
  "contractName": "NFTMarketPlaceUUPS",
  "sourceName": "contracts/UpgradableMarketPlace.sol",
  "abi": [
    {
      "inputs": [],
      "stateMutability": "nonpayable",
      "type": "constructor"
    },
    {
      "inputs": [
        {
          "internalType": "address",
          "name": "target",
          "type": "address"
        }
      ],
      "name": "AddressEmptyCode",
      "type": "error"
    },
    {
      "inputs": [
        {
          "internalType": "address",
          "name": "implementation",
          "type": "address"
        }
      ],
      "name": "ERC1967InvalidImplementation",
      "type": "error"
    },
    {
      "inputs": [],
      "name": "ERC1967NonPayable",
      "type": "error"
    },
    {
      "inputs": [
        {
          "internalType": "address",
          "name": "sender",
          "type": "address"
        },
        {
          "internalType": "uint256",
          "name": "tokenId",
          "type": "uint256"
        },
        {
          "internalType": "address",
          "name": "owner",
          "type": "address"
        }
      ],
      "name": "ERC721IncorrectOwner",
      "type": "error"
    },
    {
      "inputs": [
        {
          "internalType": "address",
          "name": "operator",
          "type": "address"
        },
        {
          "internalType": "uint256",
          "name": "tokenId",
          "type": "uint256"
        }
      ],
      "name": "ERC721InsufficientApproval",
      "type": "error"
    },
    {
      "inputs": [
        {
          "internalType": "address",
          "name": "approver",
          "type": "address"
        }
      ],
      "name": "ERC721InvalidApprover",
      "type": "error"
    },
    {
      "inputs": [
        {
          "internalType": "address",
          "name": "operator",
          "type": "address"
        }
      ],
      "name": "ERC721InvalidOperator",
      "type": "error"
    },
    {
      "inputs": [
        {
          "internalType": "address",
          "name": "owner",
          "type": "address"
        }
      ],
      "name": "ERC721InvalidOwner",
      "type": "error"
    },
    {
      "inputs": [
        {
          "internalType": "address",
          "name": "receiver",
          "type": "address"
        }
      ],
      "name": "ERC721InvalidReceiver",
      "type": "error"
    },
    {
      "inputs": [
        {
          "internalType": "address",
          "name": "sender",
          "type": "address"
        }
      ],
      "name": "ERC721InvalidSender",
      "type": "error"
    },
    {
      "inputs": [
        {
          "internalType": "uint256",
          "name": "tokenId",
          "type": "uint256"
        }
      ],
      "name": "ERC721NonexistentToken",
      "type": "error"
    },
    {
      "inputs": [],
      "name": "FailedCall",
      "type": "error"
    },
    {
      "inputs": [],
      "name": "InvalidInitialization",
      "type": "error"
    },
    {
      "inputs": [],
      "name": "NotInitializing",
      "type": "error"
    },
    {
      "inputs": [
        {
          "internalType": "address",
          "name": "owner",
          "type": "address"
        }
      ],
      "name": "OwnableInvalidOwner",
      "type": "error"
    },
    {
      "inputs": [
        {
          "internalType": "address",
          "name": "account",
          "type": "address"
        }
      ],
      "name": "OwnableUnauthorizedAccount",
      "type": "error"
    },
    {
      "inputs": [],
      "name": "UUPSUnauthorizedCallContext",
      "type": "error"
    },
    {
      "inputs": [
        {
          "internalType": "bytes32",
          "name": "slot",
          "type": "bytes32"
        }
      ],
      "name": "UUPSUnsupportedProxiableUUID",
      "type": "error"
    },
    {
      "anonymous": false,
      "inputs": [
        {
          "indexed": true,
          "internalType": "address",
          "name": "owner",
          "type": "address"
        },
        {
          "indexed": true,
          "internalType": "address",
          "name": "approved",
          "type": "address"
        },
        {
          "indexed": true,
          "internalType": "uint256",
          "name": "tokenId",
          "type": "uint256"
        }
      ],
      "name": "Approval",
      "type": "event"
    },
    {
      "anonymous": false,
      "inputs": [
        {
          "indexed": true,
          "internalType": "address",
          "name": "owner",
          "type": "address"
        },
        {
          "indexed": true,
          "internalType": "address",
          "name": "operator",
          "type": "address"
        },
        {
          "indexed": false,
          "internalType": "bool",
          "name": "approved",
          "type": "bool"
        }
      ],
      "name": "ApprovalForAll",
      "type": "event"
    },
    {
      "anonymous": false,
      "inputs": [
        {
          "indexed": false,
          "internalType": "uint64",
          "name": "version",
          "type": "uint64"
        }
      ],
      "name": "Initialized",
      "type": "event"
    },
    {
      "anonymous": false,
      "inputs": [
        {
          "indexed": true,
          "internalType": "address",
          "name": "previousOwner",
          "type": "address"
        },
        {
          "indexed": true,
          "internalType": "address",
          "name": "newOwner",
          "type": "address"
        }
      ],
      "name": "OwnershipTransferred",
      "type": "event"
    },
    {
      "anonymous": false,
      "inputs": [
        {
          "indexed": true,
          "internalType": "address",
          "name": "buyer",
          "type": "address"
        },
        {
          "indexed": true,
          "internalType": "uint256",
          "name": "tokenId",
          "type": "uint256"
        },
        {
          "indexed": false,
          "internalType": "uint256",
          "name": "price",
          "type": "uint256"
        }
      ],
      "name": "TokenAcquired",
      "type": "event"
    },
    {
      "anonymous": false,
      "inputs": [
        {
          "indexed": true,
          "internalType": "address",
          "name": "owner",
          "type": "address"
        },
        {
          "indexed": true,
          "internalType": "uint256",
          "name": "tokenId",
          "type": "uint256"
        }
      ],
      "name": "TokenCreated",
      "type": "event"
    },
    {
      "anonymous": false,
      "inputs": [
        {
          "indexed": true,
          "internalType": "address",
          "name": "seller",
          "type": "address"
        },
        {
          "indexed": true,
          "internalType": "uint256",
          "name": "tokenId",
          "type": "uint256"
        },
        {
          "indexed": false,
          "internalType": "uint256",
          "name": "price",
          "type": "uint256"
        }
      ],
      "name": "TokenListed",
      "type": "event"
    },
    {
      "anonymous": false,
      "inputs": [
        {
          "indexed": true,
          "internalType": "address",
          "name": "from",
          "type": "address"
        },
        {
          "indexed": true,
          "internalType": "address",
          "name": "to",
          "type": "address"
        },
        {
          "indexed": true,
          "internalType": "uint256",
          "name": "tokenId",
          "type": "uint256"
        }
      ],
      "name": "Transfer",
      "type": "event"
    },
    {
      "anonymous": false,
      "inputs": [
        {
          "indexed": true,
          "internalType": "address",
          "name": "implementation",
          "type": "address"
        }
      ],
      "name": "Upgraded",
      "type": "event"
    },
    {
      "inputs": [],
      "name": "UPGRADE_INTERFACE_VERSION",
      "outputs": [
        {
          "internalType": "string",
          "name": "",
          "type": "string"
        }
      ],
      "stateMutability": "view",
      "type": "function"
    },
    {
      "inputs": [
        {
          "internalType": "address",
          "name": "to",
          "type": "address"
        },
        {
          "internalType": "uint256",
          "name": "tokenId",
          "type": "uint256"
        }
      ],
      "name": "approve",
      "outputs": [],
      "stateMutability": "nonpayable",
      "type": "function"
    },
    {
      "inputs": [
        {
          "internalType": "address",
          "name": "owner",
          "type": "address"
        }
      ],
      "name": "balanceOf",
      "outputs": [
        {
          "internalType": "uint256",
          "name": "",
          "type": "uint256"
        }
      ],
      "stateMutability": "view",
      "type": "function"
    },
    {
      "inputs": [],
      "name": "createToken",
      "outputs": [],
      "stateMutability": "nonpayable",
      "type": "function"
    },
    {
      "inputs": [
        {
          "internalType": "uint256",
          "name": "tokenId",
          "type": "uint256"
        }
      ],
      "name": "fetchListingDetails",
      "outputs": [
        {
          "components": [
            {
              "internalType": "address",
              "name": "seller",
              "type": "address"
            },
            {
              "internalType": "uint256",
              "name": "price",
              "type": "uint256"
            },
            {
              "internalType": "bool",
              "name": "isForSale",
              "type": "bool"
            }
          ],
          "internalType": "struct NFTMarketPlaceUUPS.Sale",
          "name": "",
          "type": "tuple"
        }
      ],
      "stateMutability": "view",
      "type": "function"
    },
    {
      "inputs": [
        {
          "internalType": "uint256",
          "name": "tokenId",
          "type": "uint256"
        }
      ],
      "name": "getApproved",
      "outputs": [
        {
          "internalType": "address",
          "name": "",
          "type": "address"
        }
      ],
      "stateMutability": "view",
      "type": "function"
    },
    {
      "inputs": [],
      "name": "initialize",
      "outputs": [],
      "stateMutability": "nonpayable",
      "type": "function"
    },
    {
      "inputs": [
        {
          "internalType": "address",
          "name": "owner",
          "type": "address"
        },
        {
          "internalType": "address",
          "name": "operator",
          "type": "address"
        }
      ],
      "name": "isApprovedForAll",
      "outputs": [
        {
          "internalType": "bool",
          "name": "",
          "type": "bool"
        }
      ],
      "stateMutability": "view",
      "type": "function"
    },
    {
      "inputs": [
        {
          "internalType": "uint256",
          "name": "tokenId",
          "type": "uint256"
        },
        {
          "internalType": "uint256",
          "name": "price",
          "type": "uint256"
        }
      ],
      "name": "listToken",
      "outputs": [],
      "stateMutability": "nonpayable",
      "type": "function"
    },
    {
      "inputs": [],
      "name": "name",
      "outputs": [
        {
          "internalType": "string",
          "name": "",
          "type": "string"
        }
      ],
      "stateMutability": "view",
      "type": "function"
    },
    {
      "inputs": [],
      "name": "nextTokenId",
      "outputs": [
        {
          "internalType": "uint256",
          "name": "",
          "type": "uint256"
        }
      ],
      "stateMutability": "view",
      "type": "function"
    },
    {
      "inputs": [
        {
          "internalType": "uint256",
          "name": "",
          "type": "uint256"
        }
      ],
      "name": "nftListings",
      "outputs": [
        {
          "internalType": "address",
          "name": "seller",
          "type": "address"
        },
        {
          "internalType": "uint256",
          "name": "price",
          "type": "uint256"
        },
        {
          "internalType": "bool",
          "name": "isForSale",
          "type": "bool"
        }
      ],
      "stateMutability": "view",
      "type": "function"
    },
    {
      "inputs": [],
      "name": "owner",
      "outputs": [
        {
          "internalType": "address",
          "name": "",
          "type": "address"
        }
      ],
      "stateMutability": "view",
      "type": "function"
    },
    {
      "inputs": [
        {
          "internalType": "uint256",
          "name": "tokenId",
          "type": "uint256"
        }
      ],
      "name": "ownerOf",
      "outputs": [
        {
          "internalType": "address",
          "name": "",
          "type": "address"
        }
      ],
      "stateMutability": "view",
      "type": "function"
    },
    {
      "inputs": [],
      "name": "proxiableUUID",
      "outputs": [
        {
          "internalType": "bytes32",
          "name": "",
          "type": "bytes32"
        }
      ],
      "stateMutability": "view",
      "type": "function"
    },
    {
      "inputs": [
        {
          "internalType": "uint256",
          "name": "tokenId",
          "type": "uint256"
        }
      ],
      "name": "purchaseToken",
      "outputs": [],
      "stateMutability": "payable",
      "type": "function"
    },
    {
      "inputs": [
        {
          "internalType": "uint256",
          "name": "tokenId",
          "type": "uint256"
        }
      ],
      "name": "removeTokenFromSale",
      "outputs": [],
      "stateMutability": "nonpayable",
      "type": "function"
    },
    {
      "inputs": [],
      "name": "renounceOwnership",
      "outputs": [],
      "stateMutability": "nonpayable",
      "type": "function"
    },
    {
      "inputs": [
        {
          "internalType": "address",
          "name": "from",
          "type": "address"
        },
        {
          "internalType": "address",
          "name": "to",
          "type": "address"
        },
        {
          "internalType": "uint256",
          "name": "tokenId",
          "type": "uint256"
        }
      ],
      "name": "safeTransferFrom",
      "outputs": [],
      "stateMutability": "nonpayable",
      "type": "function"
    },
    {
      "inputs": [
        {
          "internalType": "address",
          "name": "from",
          "type": "address"
        },
        {
          "internalType": "address",
          "name": "to",
          "type": "address"
        },
        {
          "internalType": "uint256",
          "name": "tokenId",
          "type": "uint256"
        },
        {
          "internalType": "bytes",
          "name": "data",
          "type": "bytes"
        }
      ],
      "name": "safeTransferFrom",
      "outputs": [],
      "stateMutability": "nonpayable",
      "type": "function"
    },
    {
      "inputs": [
        {
          "internalType": "address",
          "name": "operator",
          "type": "address"
        },
        {
          "internalType": "bool",
          "name": "approved",
          "type": "bool"
        }
      ],
      "name": "setApprovalForAll",
      "outputs": [],
      "stateMutability": "nonpayable",
      "type": "function"
    },
    {
      "inputs": [
        {
          "internalType": "bytes4",
          "name": "interfaceId",
          "type": "bytes4"
        }
      ],
      "name": "supportsInterface",
      "outputs": [
        {
          "internalType": "bool",
          "name": "",
          "type": "bool"
        }
      ],
      "stateMutability": "view",
      "type": "function"
    },
    {
      "inputs": [],
      "name": "symbol",
      "outputs": [
        {
          "internalType": "string",
          "name": "",
          "type": "string"
        }
      ],
      "stateMutability": "view",
      "type": "function"
    },
    {
      "inputs": [
        {
          "internalType": "uint256",
          "name": "tokenId",
          "type": "uint256"
        }
      ],
      "name": "tokenURI",
      "outputs": [
        {
          "internalType": "string",
          "name": "",
          "type": "string"
        }
      ],
      "stateMutability": "view",
      "type": "function"
    },
    {
      "inputs": [
        {
          "internalType": "address",
          "name": "from",
          "type": "address"
        },
        {
          "internalType": "address",
          "name": "to",
          "type": "address"
        },
        {
          "internalType": "uint256",
          "name": "tokenId",
          "type": "uint256"
        }
      ],
      "name": "transferFrom",
      "outputs": [],
      "stateMutability": "nonpayable",
      "type": "function"
    },
    {
      "inputs": [
        {
          "internalType": "address",
          "name": "newOwner",
          "type": "address"
        }
      ],
      "name": "transferOwnership",
      "outputs": [],
      "stateMutability": "nonpayable",
      "type": "function"
    },
    {
      "inputs": [
        {
          "internalType": "address",
          "name": "newImplementation",
          "type": "address"
        },
        {
          "internalType": "bytes",
          "name": "data",
          "type": "bytes"
        }
      ],
      "name": "upgradeToAndCall",
      "outputs": [],
      "stateMutability": "payable",
      "type": "function"
    },
    {
      "stateMutability": "payable",
      "type": "receive"
    }
  ],
  "bytecode": "0x60a06040523073ffffffffffffffffffffffffffffffffffffffff1660809073ffffffffffffffffffffffffffffffffffffffff168152503480156200004457600080fd5b50620000556200005b60201b60201c565b620001cf565b60006200006d6200016560201b60201c565b90508060000160089054906101000a900460ff1615620000b9576040517ff92ee8a900000000000000000000000000000000000000000000000000000000815260040160405180910390fd5b67ffffffffffffffff80168160000160009054906101000a900467ffffffffffffffff1667ffffffffffffffff1614620001625767ffffffffffffffff8160000160006101000a81548167ffffffffffffffff021916908367ffffffffffffffff1602179055507fc7f505b2f371ae2175ee4913f4499e1f2633a7b5936321eed1cdaeb6115181d267ffffffffffffffff604051620001599190620001b2565b60405180910390a15b50565b60007ff0c57e16840df040f15088dc2f81fe391c3923bec73e23a9662efc9c229c6a00905090565b600067ffffffffffffffff82169050919050565b620001ac816200018d565b82525050565b6000602082019050620001c96000830184620001a1565b92915050565b6080516140e2620001f960003960008181611a7b01528181611ad00152611c8b01526140e26000f3fe6080604052600436106101a05760003560e01c80637c5bb03d116100ec578063b88d4fde1161008a578063c87b56dd11610064578063c87b56dd14610594578063e8cdea11146105d1578063e985e9c5146105fa578063f2fde38b14610637576101aa565b8063b88d4fde14610512578063c2db2c421461053b578063c64177e614610557576101aa565b806395d89b41116100c657806395d89b411461047c5780639cbf9e36146104a7578063a22cb465146104be578063ad3cb1cc146104e7576101aa565b80637c5bb03d146103fb5780638129fc1c1461043a5780638da5cb5b14610451576101aa565b80634f1ef2861161015957806370a082311161013357806370a0823114610353578063715018a61461039057806375794a3c146103a757806375c1631d146103d2576101aa565b80634f1ef286146102cf57806352d1902d146102eb5780636352211e14610316576101aa565b806301ffc9a7146101af57806306fdde03146101ec578063081812fc14610217578063095ea7b31461025457806323b872dd1461027d57806342842e0e146102a6576101aa565b366101aa57600080fd5b600080fd5b3480156101bb57600080fd5b506101d660048036038101906101d19190612fac565b610660565b6040516101e39190612ff4565b60405180910390f35b3480156101f857600080fd5b50610201610742565b60405161020e919061309f565b60405180910390f35b34801561022357600080fd5b5061023e600480360381019061023991906130f7565b6107e3565b60405161024b9190613165565b60405180910390f35b34801561026057600080fd5b5061027b600480360381019061027691906131ac565b6107ff565b005b34801561028957600080fd5b506102a4600480360381019061029f91906131ec565b610815565b005b3480156102b257600080fd5b506102cd60048036038101906102c891906131ec565b610917565b005b6102e960048036038101906102e49190613374565b610937565b005b3480156102f757600080fd5b50610300610956565b60405161030d91906133e9565b60405180910390f35b34801561032257600080fd5b5061033d600480360381019061033891906130f7565b610989565b60405161034a9190613165565b60405180910390f35b34801561035f57600080fd5b5061037a60048036038101906103759190613404565b61099b565b6040516103879190613440565b60405180910390f35b34801561039c57600080fd5b506103a5610a64565b005b3480156103b357600080fd5b506103bc610a78565b6040516103c99190613440565b60405180910390f35b3480156103de57600080fd5b506103f960048036038101906103f4919061345b565b610a7e565b005b34801561040757600080fd5b50610422600480360381019061041d91906130f7565b610cad565b6040516104319392919061349b565b60405180910390f35b34801561044657600080fd5b5061044f610d04565b005b34801561045d57600080fd5b50610466610f0e565b6040516104739190613165565b60405180910390f35b34801561048857600080fd5b50610491610f46565b60405161049e919061309f565b60405180910390f35b3480156104b357600080fd5b506104bc610fe7565b005b3480156104ca57600080fd5b506104e560048036038101906104e091906134fe565b611057565b005b3480156104f357600080fd5b506104fc61106d565b604051610509919061309f565b60405180910390f35b34801561051e57600080fd5b506105396004803603810190610534919061353e565b6110a6565b005b610555600480360381019061055091906130f7565b6110cb565b005b34801561056357600080fd5b5061057e600480360381019061057991906130f7565b611362565b60405161058b9190613630565b60405180910390f35b3480156105a057600080fd5b506105bb60048036038101906105b691906130f7565b611409565b6040516105c8919061309f565b60405180910390f35b3480156105dd57600080fd5b506105f860048036038101906105f391906130f7565b611472565b005b34801561060657600080fd5b50610621600480360381019061061c919061364b565b6115a5565b60405161062e9190612ff4565b60405180910390f35b34801561064357600080fd5b5061065e60048036038101906106599190613404565b611647565b005b60007f80ac58cd000000000000000000000000000000000000000000000000000000007bffffffffffffffffffffffffffffffffffffffffffffffffffffffff1916827bffffffffffffffffffffffffffffffffffffffffffffffffffffffff1916148061072b57507f5b5e139f000000000000000000000000000000000000000000000000000000007bffffffffffffffffffffffffffffffffffffffffffffffffffffffff1916827bffffffffffffffffffffffffffffffffffffffffffffffffffffffff1916145b8061073b575061073a826116cd565b5b9050919050565b6060600061074e611737565b905080600001805461075f906136ba565b80601f016020809104026020016040519081016040528092919081815260200182805461078b906136ba565b80156107d85780601f106107ad576101008083540402835291602001916107d8565b820191906000526020600020905b8154815290600101906020018083116107bb57829003601f168201915b505050505091505090565b60006107ee8261175f565b506107f8826117e7565b9050919050565b610811828261080c611832565b61183a565b5050565b600073ffffffffffffffffffffffffffffffffffffffff168273ffffffffffffffffffffffffffffffffffffffff16036108875760006040517f64a0ae9200000000000000000000000000000000000000000000000000000000815260040161087e9190613165565b60405180910390fd5b600061089b8383610896611832565b61184c565b90508373ffffffffffffffffffffffffffffffffffffffff168173ffffffffffffffffffffffffffffffffffffffff1614610911578382826040517f64283d7b000000000000000000000000000000000000000000000000000000008152600401610908939291906136eb565b60405180910390fd5b50505050565b610932838383604051806020016040528060008152506110a6565b505050565b61093f611a79565b61094882611b5f565b6109528282611b6a565b5050565b6000610960611c89565b7f360894a13ba1a3210667c828492db98dca3e2076cc3735a920a3ca505d382bbc60001b905090565b60006109948261175f565b9050919050565b6000806109a6611737565b9050600073ffffffffffffffffffffffffffffffffffffffff168373ffffffffffffffffffffffffffffffffffffffff1603610a1a5760006040517f89c62b64000000000000000000000000000000000000000000000000000000008152600401610a119190613165565b60405180910390fd5b8060030160008473ffffffffffffffffffffffffffffffffffffffff1673ffffffffffffffffffffffffffffffffffffffff16815260200190815260200160002054915050919050565b610a6c611d10565b610a766000611d97565b565b60015481565b6000151560008084815260200190815260200160002060020160009054906101000a900460ff16151514610ae7576040517f08c379a0000000000000000000000000000000000000000000000000000000008152600401610ade90613794565b60405180910390fd5b3373ffffffffffffffffffffffffffffffffffffffff16610b0783610989565b73ffffffffffffffffffffffffffffffffffffffff1614610b5d576040517f08c379a0000000000000000000000000000000000000000000000000000000008152600401610b5490613826565b60405180910390fd5b60008111610ba0576040517f08c379a0000000000000000000000000000000000000000000000000000000008152600401610b9790613892565b60405180910390fd5b60405180606001604052803373ffffffffffffffffffffffffffffffffffffffff1681526020018281526020016001151581525060008084815260200190815260200160002060008201518160000160006101000a81548173ffffffffffffffffffffffffffffffffffffffff021916908373ffffffffffffffffffffffffffffffffffffffff1602179055506020820151816001015560408201518160020160006101000a81548160ff021916908315150217905550905050813373ffffffffffffffffffffffffffffffffffffffff167f5dc96537cbae524775a674b6a810d9a1ba04a9e279f172d156b352151394677a83604051610ca19190613440565b60405180910390a35050565b60006020528060005260406000206000915090508060000160009054906101000a900473ffffffffffffffffffffffffffffffffffffffff16908060010154908060020160009054906101000a900460ff16905083565b6000610d0e611e6e565b905060008160000160089054906101000a900460ff1615905060008260000160009054906101000a900467ffffffffffffffff1690506000808267ffffffffffffffff16148015610d5c5750825b9050600060018367ffffffffffffffff16148015610d91575060003073ffffffffffffffffffffffffffffffffffffffff163b145b905081158015610d9f575080155b15610dd6576040517ff92ee8a900000000000000000000000000000000000000000000000000000000815260040160405180910390fd5b60018560000160006101000a81548167ffffffffffffffff021916908367ffffffffffffffff1602179055508315610e265760018560000160086101000a81548160ff0219169083151502179055505b610e9a6040518060400160405280601081526020017f506f6c6172426561724e465455555053000000000000000000000000000000008152506040518060400160405280600481526020017f5042525500000000000000000000000000000000000000000000000000000000815250611e96565b610ea333611eac565b610eab611ec0565b8315610f075760008560000160086101000a81548160ff0219169083151502179055507fc7f505b2f371ae2175ee4913f4499e1f2633a7b5936321eed1cdaeb6115181d26001604051610efe919061390b565b60405180910390a15b5050505050565b600080610f19611eca565b90508060000160009054906101000a900473ffffffffffffffffffffffffffffffffffffffff1691505090565b60606000610f52611737565b9050806001018054610f63906136ba565b80601f0160208091040260200160405190810160405280929190818152602001828054610f8f906136ba565b8015610fdc5780601f10610fb157610100808354040283529160200191610fdc565b820191906000526020600020905b815481529060010190602001808311610fbf57829003601f168201915b505050505091505090565b600060015490506001600081548092919061100190613955565b91905055506110103382611ef2565b803373ffffffffffffffffffffffffffffffffffffffff167f1cef2b4ec7f129e441c961eb4fae22fd3131868db6be990c6f065f35b6b53cf360405160405180910390a350565b611069611062611832565b8383611f10565b5050565b6040518060400160405280600581526020017f352e302e3000000000000000000000000000000000000000000000000000000081525081565b6110b1848484610815565b6110c56110bc611832565b8585858561208e565b50505050565b60008060008381526020019081526020016000206040518060600160405290816000820160009054906101000a900473ffffffffffffffffffffffffffffffffffffffff1673ffffffffffffffffffffffffffffffffffffffff1673ffffffffffffffffffffffffffffffffffffffff168152602001600182015481526020016002820160009054906101000a900460ff161515151581525050905080604001516111ab576040517f08c379a00000000000000000000000000000000000000000000000000000000081526004016111a2906139e9565b60405180910390fd5b806020015134146111f1576040517f08c379a00000000000000000000000000000000000000000000000000000000081526004016111e890613a55565b60405180910390fd5b600081600001519050600080848152602001908152602001600020600080820160006101000a81549073ffffffffffffffffffffffffffffffffffffffff021916905560018201600090556002820160006101000a81549060ff0219169055505060008173ffffffffffffffffffffffffffffffffffffffff163460405161127890613aa6565b60006040518083038185875af1925050503d80600081146112b5576040519150601f19603f3d011682016040523d82523d6000602084013e6112ba565b606091505b50509050806112fe576040517f08c379a00000000000000000000000000000000000000000000000000000000081526004016112f590613b07565b60405180910390fd5b61130982338661223f565b833373ffffffffffffffffffffffffffffffffffffffff167fa06bd30847f4b70d78f8c14662e59f3ebe0346d05b4142890f7d7f72ac092db185602001516040516113549190613440565b60405180910390a350505050565b61136a612f07565b6000808381526020019081526020016000206040518060600160405290816000820160009054906101000a900473ffffffffffffffffffffffffffffffffffffffff1673ffffffffffffffffffffffffffffffffffffffff1673ffffffffffffffffffffffffffffffffffffffff168152602001600182015481526020016002820160009054906101000a900460ff1615151515815250509050919050565b60606114148261175f565b50600061141f6123ac565b9050600081511161143f576040518060200160405280600081525061146a565b80611449846123cc565b60405160200161145a929190613b63565b6040516020818303038152906040525b915050919050565b3373ffffffffffffffffffffffffffffffffffffffff1661149282610989565b73ffffffffffffffffffffffffffffffffffffffff16146114e8576040517f08c379a00000000000000000000000000000000000000000000000000000000081526004016114df90613826565b60405180910390fd5b60008082815260200190815260200160002060020160009054906101000a900460ff1661154a576040517f08c379a000000000000000000000000000000000000000000000000000000000815260040161154190613bd3565b60405180910390fd5b600080828152602001908152602001600020600080820160006101000a81549073ffffffffffffffffffffffffffffffffffffffff021916905560018201600090556002820160006101000a81549060ff0219169055505050565b6000806115b0611737565b90508060050160008573ffffffffffffffffffffffffffffffffffffffff1673ffffffffffffffffffffffffffffffffffffffff16815260200190815260200160002060008473ffffffffffffffffffffffffffffffffffffffff1673ffffffffffffffffffffffffffffffffffffffff16815260200190815260200160002060009054906101000a900460ff1691505092915050565b61164f611d10565b600073ffffffffffffffffffffffffffffffffffffffff168173ffffffffffffffffffffffffffffffffffffffff16036116c15760006040517f1e4fbdf70000000000000000000000000000000000000000000000000000000081526004016116b89190613165565b60405180910390fd5b6116ca81611d97565b50565b60007f01ffc9a7000000000000000000000000000000000000000000000000000000007bffffffffffffffffffffffffffffffffffffffffffffffffffffffff1916827bffffffffffffffffffffffffffffffffffffffffffffffffffffffff1916149050919050565b60007f80bb2b638cc20bc4d0a60d66940f3ab4a00c1d7b313497ca82fb0b4ab0079300905090565b60008061176b8361249a565b9050600073ffffffffffffffffffffffffffffffffffffffff168173ffffffffffffffffffffffffffffffffffffffff16036117de57826040517f7e2732890000000000000000000000000000000000000000000000000000000081526004016117d59190613440565b60405180910390fd5b80915050919050565b6000806117f2611737565b905080600401600084815260200190815260200160002060009054906101000a900473ffffffffffffffffffffffffffffffffffffffff16915050919050565b600033905090565b61184783838360016124e5565b505050565b600080611857611737565b905060006118648561249a565b9050600073ffffffffffffffffffffffffffffffffffffffff168473ffffffffffffffffffffffffffffffffffffffff16146118a6576118a58185876126b9565b5b600073ffffffffffffffffffffffffffffffffffffffff168173ffffffffffffffffffffffffffffffffffffffff1614611939576118e86000866000806124e5565b60018260030160008373ffffffffffffffffffffffffffffffffffffffff1673ffffffffffffffffffffffffffffffffffffffff168152602001908152602001600020600082825403925050819055505b600073ffffffffffffffffffffffffffffffffffffffff168673ffffffffffffffffffffffffffffffffffffffff16146119be5760018260030160008873ffffffffffffffffffffffffffffffffffffffff1673ffffffffffffffffffffffffffffffffffffffff168152602001908152602001600020600082825401925050819055505b8582600201600087815260200190815260200160002060006101000a81548173ffffffffffffffffffffffffffffffffffffffff021916908373ffffffffffffffffffffffffffffffffffffffff160217905550848673ffffffffffffffffffffffffffffffffffffffff168273ffffffffffffffffffffffffffffffffffffffff167fddf252ad1be2c89b69c2b068fc378daa952ba7f163c4a11628f55a4df523b3ef60405160405180910390a480925050509392505050565b7f000000000000000000000000000000000000000000000000000000000000000073ffffffffffffffffffffffffffffffffffffffff163073ffffffffffffffffffffffffffffffffffffffff161480611b2657507f000000000000000000000000000000000000000000000000000000000000000073ffffffffffffffffffffffffffffffffffffffff16611b0d61277d565b73ffffffffffffffffffffffffffffffffffffffff1614155b15611b5d576040517fe07c8dba00000000000000000000000000000000000000000000000000000000815260040160405180910390fd5b565b611b67611d10565b50565b8173ffffffffffffffffffffffffffffffffffffffff166352d1902d6040518163ffffffff1660e01b8152600401602060405180830381865afa925050508015611bd257506040513d601f19601f82011682018060405250810190611bcf9190613c1f565b60015b611c1357816040517f4c9c8ce3000000000000000000000000000000000000000000000000000000008152600401611c0a9190613165565b60405180910390fd5b7f360894a13ba1a3210667c828492db98dca3e2076cc3735a920a3ca505d382bbc60001b8114611c7a57806040517faa1d49a4000000000000000000000000000000000000000000000000000000008152600401611c7191906133e9565b60405180910390fd5b611c8483836127d4565b505050565b7f000000000000000000000000000000000000000000000000000000000000000073ffffffffffffffffffffffffffffffffffffffff163073ffffffffffffffffffffffffffffffffffffffff1614611d0e576040517fe07c8dba00000000000000000000000000000000000000000000000000000000815260040160405180910390fd5b565b611d18611832565b73ffffffffffffffffffffffffffffffffffffffff16611d36610f0e565b73ffffffffffffffffffffffffffffffffffffffff1614611d9557611d59611832565b6040517f118cdaa7000000000000000000000000000000000000000000000000000000008152600401611d8c9190613165565b60405180910390fd5b565b6000611da1611eca565b905060008160000160009054906101000a900473ffffffffffffffffffffffffffffffffffffffff169050828260000160006101000a81548173ffffffffffffffffffffffffffffffffffffffff021916908373ffffffffffffffffffffffffffffffffffffffff1602179055508273ffffffffffffffffffffffffffffffffffffffff168173ffffffffffffffffffffffffffffffffffffffff167f8be0079c531659141344cd1fd0a4f28419497f9722a3daafe3b4186f6b6457e060405160405180910390a3505050565b60007ff0c57e16840df040f15088dc2f81fe391c3923bec73e23a9662efc9c229c6a00905090565b611e9e612847565b611ea88282612887565b5050565b611eb4612847565b611ebd816128c4565b50565b611ec8612847565b565b60007f9016d09d72d40fdae2fd8ceac6b6234c7706214fd39c1cd1e609a0528c199300905090565b611f0c82826040518060200160405280600081525061294a565b5050565b6000611f1a611737565b9050600073ffffffffffffffffffffffffffffffffffffffff168373ffffffffffffffffffffffffffffffffffffffff1603611f8d57826040517f5b08ba18000000000000000000000000000000000000000000000000000000008152600401611f849190613165565b60405180910390fd5b818160050160008673ffffffffffffffffffffffffffffffffffffffff1673ffffffffffffffffffffffffffffffffffffffff16815260200190815260200160002060008573ffffffffffffffffffffffffffffffffffffffff1673ffffffffffffffffffffffffffffffffffffffff16815260200190815260200160002060006101000a81548160ff0219169083151502179055508273ffffffffffffffffffffffffffffffffffffffff168473ffffffffffffffffffffffffffffffffffffffff167f17307eab39ab6107e8899845ad3d59bd9653f200f220920489ca2b5937696c31846040516120809190612ff4565b60405180910390a350505050565b60008373ffffffffffffffffffffffffffffffffffffffff163b1115612238578273ffffffffffffffffffffffffffffffffffffffff1663150b7a02868685856040518563ffffffff1660e01b81526004016120ed9493929190613ca1565b6020604051808303816000875af192505050801561212957506040513d601f19601f820116820180604052508101906121269190613d02565b60015b6121ad573d8060008114612159576040519150601f19603f3d011682016040523d82523d6000602084013e61215e565b606091505b5060008151036121a557836040517f64a0ae9200000000000000000000000000000000000000000000000000000000815260040161219c9190613165565b60405180910390fd5b805181602001fd5b63150b7a0260e01b7bffffffffffffffffffffffffffffffffffffffffffffffffffffffff1916817bffffffffffffffffffffffffffffffffffffffffffffffffffffffff19161461223657836040517f64a0ae9200000000000000000000000000000000000000000000000000000000815260040161222d9190613165565b60405180910390fd5b505b5050505050565b600073ffffffffffffffffffffffffffffffffffffffff168273ffffffffffffffffffffffffffffffffffffffff16036122b15760006040517f64a0ae920000000000000000000000000000000000000000000000000000000081526004016122a89190613165565b60405180910390fd5b60006122bf8383600061184c565b9050600073ffffffffffffffffffffffffffffffffffffffff168173ffffffffffffffffffffffffffffffffffffffff160361233257816040517f7e2732890000000000000000000000000000000000000000000000000000000081526004016123299190613440565b60405180910390fd5b8373ffffffffffffffffffffffffffffffffffffffff168173ffffffffffffffffffffffffffffffffffffffff16146123a6578382826040517f64283d7b00000000000000000000000000000000000000000000000000000000815260040161239d939291906136eb565b60405180910390fd5b50505050565b60606040518060a001604052806069815260200161404460699139905090565b6060600060016123db8461296e565b01905060008167ffffffffffffffff8111156123fa576123f9613249565b5b6040519080825280601f01601f19166020018201604052801561242c5781602001600182028036833780820191505090505b509050600082602001820190505b60011561248f578080600190039150507f3031323334353637383961626364656600000000000000000000000000000000600a86061a8153600a858161248357612482613d2f565b5b0494506000850361243a575b819350505050919050565b6000806124a5611737565b905080600201600084815260200190815260200160002060009054906101000a900473ffffffffffffffffffffffffffffffffffffffff16915050919050565b60006124ef611737565b9050818061252a5750600073ffffffffffffffffffffffffffffffffffffffff168373ffffffffffffffffffffffffffffffffffffffff1614155b1561265e57600061253a8561175f565b9050600073ffffffffffffffffffffffffffffffffffffffff168473ffffffffffffffffffffffffffffffffffffffff16141580156125a557508373ffffffffffffffffffffffffffffffffffffffff168173ffffffffffffffffffffffffffffffffffffffff1614155b80156125b857506125b681856115a5565b155b156125fa57836040517fa9fbf51f0000000000000000000000000000000000000000000000000000000081526004016125f19190613165565b60405180910390fd5b821561265c57848673ffffffffffffffffffffffffffffffffffffffff168273ffffffffffffffffffffffffffffffffffffffff167f8c5be1e5ebec7d5bd14f71427d1e84f3dd0314c0f7b2291e5b200ac8c7c3b92560405160405180910390a45b505b8481600401600086815260200190815260200160002060006101000a81548173ffffffffffffffffffffffffffffffffffffffff021916908373ffffffffffffffffffffffffffffffffffffffff1602179055505050505050565b6126c4838383612ac1565b61277857600073ffffffffffffffffffffffffffffffffffffffff168373ffffffffffffffffffffffffffffffffffffffff160361273957806040517f7e2732890000000000000000000000000000000000000000000000000000000081526004016127309190613440565b60405180910390fd5b81816040517f177e802f00000000000000000000000000000000000000000000000000000000815260040161276f929190613d5e565b60405180910390fd5b505050565b60006127ab7f360894a13ba1a3210667c828492db98dca3e2076cc3735a920a3ca505d382bbc60001b612b82565b60000160009054906101000a900473ffffffffffffffffffffffffffffffffffffffff16905090565b6127dd82612b8c565b8173ffffffffffffffffffffffffffffffffffffffff167fbc7cd75a20ee27fd9adebab32041f755214dbc6bffa90cc0225b39da2e5c2d3b60405160405180910390a260008151111561283a576128348282612c59565b50612843565b612842612cdd565b5b5050565b61284f612d1a565b612885576040517fd7e6bcf800000000000000000000000000000000000000000000000000000000815260040160405180910390fd5b565b61288f612847565b6000612899611737565b9050828160000190816128ac9190613f29565b50818160010190816128be9190613f29565b50505050565b6128cc612847565b600073ffffffffffffffffffffffffffffffffffffffff168173ffffffffffffffffffffffffffffffffffffffff160361293e5760006040517f1e4fbdf70000000000000000000000000000000000000000000000000000000081526004016129359190613165565b60405180910390fd5b61294781611d97565b50565b6129548383612d3a565b61296961295f611832565b600085858561208e565b505050565b600080600090507a184f03e93ff9f4daa797ed6e38ed64bf6a1f01000000000000000083106129cc577a184f03e93ff9f4daa797ed6e38ed64bf6a1f01000000000000000083816129c2576129c1613d2f565b5b0492506040810190505b6d04ee2d6d415b85acef81000000008310612a09576d04ee2d6d415b85acef810000000083816129ff576129fe613d2f565b5b0492506020810190505b662386f26fc100008310612a3857662386f26fc100008381612a2e57612a2d613d2f565b5b0492506010810190505b6305f5e1008310612a61576305f5e1008381612a5757612a56613d2f565b5b0492506008810190505b6127108310612a86576127108381612a7c57612a7b613d2f565b5b0492506004810190505b60648310612aa95760648381612a9f57612a9e613d2f565b5b0492506002810190505b600a8310612ab8576001810190505b80915050919050565b60008073ffffffffffffffffffffffffffffffffffffffff168373ffffffffffffffffffffffffffffffffffffffff1614158015612b7957508273ffffffffffffffffffffffffffffffffffffffff168473ffffffffffffffffffffffffffffffffffffffff161480612b3a5750612b3984846115a5565b5b80612b7857508273ffffffffffffffffffffffffffffffffffffffff16612b60836117e7565b73ffffffffffffffffffffffffffffffffffffffff16145b5b90509392505050565b6000819050919050565b60008173ffffffffffffffffffffffffffffffffffffffff163b03612be857806040517f4c9c8ce3000000000000000000000000000000000000000000000000000000008152600401612bdf9190613165565b60405180910390fd5b80612c157f360894a13ba1a3210667c828492db98dca3e2076cc3735a920a3ca505d382bbc60001b612b82565b60000160006101000a81548173ffffffffffffffffffffffffffffffffffffffff021916908373ffffffffffffffffffffffffffffffffffffffff16021790555050565b60606000808473ffffffffffffffffffffffffffffffffffffffff1684604051612c83919061402c565b600060405180830381855af49150503d8060008114612cbe576040519150601f19603f3d011682016040523d82523d6000602084013e612cc3565b606091505b5091509150612cd3858383612e33565b9250505092915050565b6000341115612d18576040517fb398979f00000000000000000000000000000000000000000000000000000000815260040160405180910390fd5b565b6000612d24611e6e565b60000160089054906101000a900460ff16905090565b600073ffffffffffffffffffffffffffffffffffffffff168273ffffffffffffffffffffffffffffffffffffffff1603612dac5760006040517f64a0ae92000000000000000000000000000000000000000000000000000000008152600401612da39190613165565b60405180910390fd5b6000612dba8383600061184c565b9050600073ffffffffffffffffffffffffffffffffffffffff168173ffffffffffffffffffffffffffffffffffffffff1614612e2e5760006040517f73c6ac6e000000000000000000000000000000000000000000000000000000008152600401612e259190613165565b60405180910390fd5b505050565b606082612e4857612e4382612ec2565b612eba565b60008251148015612e70575060008473ffffffffffffffffffffffffffffffffffffffff163b145b15612eb257836040517f9996b315000000000000000000000000000000000000000000000000000000008152600401612ea99190613165565b60405180910390fd5b819050612ebb565b5b9392505050565b600081511115612ed55780518082602001fd5b6040517fd6bda27500000000000000000000000000000000000000000000000000000000815260040160405180910390fd5b6040518060600160405280600073ffffffffffffffffffffffffffffffffffffffff168152602001600081526020016000151581525090565b6000604051905090565b600080fd5b600080fd5b60007fffffffff0000000000000000000000000000000000000000000000000000000082169050919050565b612f8981612f54565b8114612f9457600080fd5b50565b600081359050612fa681612f80565b92915050565b600060208284031215612fc257612fc1612f4a565b5b6000612fd084828501612f97565b91505092915050565b60008115159050919050565b612fee81612fd9565b82525050565b60006020820190506130096000830184612fe5565b92915050565b600081519050919050565b600082825260208201905092915050565b60005b8381101561304957808201518184015260208101905061302e565b60008484015250505050565b6000601f19601f8301169050919050565b60006130718261300f565b61307b818561301a565b935061308b81856020860161302b565b61309481613055565b840191505092915050565b600060208201905081810360008301526130b98184613066565b905092915050565b6000819050919050565b6130d4816130c1565b81146130df57600080fd5b50565b6000813590506130f1816130cb565b92915050565b60006020828403121561310d5761310c612f4a565b5b600061311b848285016130e2565b91505092915050565b600073ffffffffffffffffffffffffffffffffffffffff82169050919050565b600061314f82613124565b9050919050565b61315f81613144565b82525050565b600060208201905061317a6000830184613156565b92915050565b61318981613144565b811461319457600080fd5b50565b6000813590506131a681613180565b92915050565b600080604083850312156131c3576131c2612f4a565b5b60006131d185828601613197565b92505060206131e2858286016130e2565b9150509250929050565b60008060006060848603121561320557613204612f4a565b5b600061321386828701613197565b935050602061322486828701613197565b9250506040613235868287016130e2565b9150509250925092565b600080fd5b600080fd5b7f4e487b7100000000000000000000000000000000000000000000000000000000600052604160045260246000fd5b61328182613055565b810181811067ffffffffffffffff821117156132a05761329f613249565b5b80604052505050565b60006132b3612f40565b90506132bf8282613278565b919050565b600067ffffffffffffffff8211156132df576132de613249565b5b6132e882613055565b9050602081019050919050565b82818337600083830152505050565b6000613317613312846132c4565b6132a9565b90508281526020810184848401111561333357613332613244565b5b61333e8482856132f5565b509392505050565b600082601f83011261335b5761335a61323f565b5b813561336b848260208601613304565b91505092915050565b6000806040838503121561338b5761338a612f4a565b5b600061339985828601613197565b925050602083013567ffffffffffffffff8111156133ba576133b9612f4f565b5b6133c685828601613346565b9150509250929050565b6000819050919050565b6133e3816133d0565b82525050565b60006020820190506133fe60008301846133da565b92915050565b60006020828403121561341a57613419612f4a565b5b600061342884828501613197565b91505092915050565b61343a816130c1565b82525050565b60006020820190506134556000830184613431565b92915050565b6000806040838503121561347257613471612f4a565b5b6000613480858286016130e2565b9250506020613491858286016130e2565b9150509250929050565b60006060820190506134b06000830186613156565b6134bd6020830185613431565b6134ca6040830184612fe5565b949350505050565b6134db81612fd9565b81146134e657600080fd5b50565b6000813590506134f8816134d2565b92915050565b6000806040838503121561351557613514612f4a565b5b600061352385828601613197565b9250506020613534858286016134e9565b9150509250929050565b6000806000806080858703121561355857613557612f4a565b5b600061356687828801613197565b945050602061357787828801613197565b9350506040613588878288016130e2565b925050606085013567ffffffffffffffff8111156135a9576135a8612f4f565b5b6135b587828801613346565b91505092959194509250565b6135ca81613144565b82525050565b6135d9816130c1565b82525050565b6135e881612fd9565b82525050565b60608201600082015161360460008501826135c1565b50602082015161361760208501826135d0565b50604082015161362a60408501826135df565b50505050565b600060608201905061364560008301846135ee565b92915050565b6000806040838503121561366257613661612f4a565b5b600061367085828601613197565b925050602061368185828601613197565b9150509250929050565b7f4e487b7100000000000000000000000000000000000000000000000000000000600052602260045260246000fd5b600060028204905060018216806136d257607f821691505b6020821081036136e5576136e461368b565b5b50919050565b60006060820190506137006000830186613156565b61370d6020830185613431565b61371a6040830184613156565b949350505050565b7f54686973204e465420697320616c7265616479206c697374656420666f72207360008201527f616c650000000000000000000000000000000000000000000000000000000000602082015250565b600061377e60238361301a565b915061378982613722565b604082019050919050565b600060208201905081810360008301526137ad81613771565b9050919050565b7f596f7520617265206e6f7420746865206f776e6572206f662074686973204e4660008201527f5400000000000000000000000000000000000000000000000000000000000000602082015250565b600061381060218361301a565b915061381b826137b4565b604082019050919050565b6000602082019050818103600083015261383f81613803565b9050919050565b7f5072696365206d7573742062652067726561746572207468616e207a65726f00600082015250565b600061387c601f8361301a565b915061388782613846565b602082019050919050565b600060208201905081810360008301526138ab8161386f565b9050919050565b6000819050919050565b600067ffffffffffffffff82169050919050565b6000819050919050565b60006138f56138f06138eb846138b2565b6138d0565b6138bc565b9050919050565b613905816138da565b82525050565b600060208201905061392060008301846138fc565b92915050565b7f4e487b7100000000000000000000000000000000000000000000000000000000600052601160045260246000fd5b6000613960826130c1565b91507fffffffffffffffffffffffffffffffffffffffffffffffffffffffffffffffff820361399257613991613926565b5b600182019050919050565b7f54686973204e4654206973206e6f7420666f722073616c650000000000000000600082015250565b60006139d360188361301a565b91506139de8261399d565b602082019050919050565b60006020820190508181036000830152613a02816139c6565b9050919050565b7f496e636f72726563742076616c75652073656e74000000000000000000000000600082015250565b6000613a3f60148361301a565b9150613a4a82613a09565b602082019050919050565b60006020820190508181036000830152613a6e81613a32565b9050919050565b600081905092915050565b50565b6000613a90600083613a75565b9150613a9b82613a80565b600082019050919050565b6000613ab182613a83565b9150819050919050565b7f5472616e73666572206661696c65640000000000000000000000000000000000600082015250565b6000613af1600f8361301a565b9150613afc82613abb565b602082019050919050565b60006020820190508181036000830152613b2081613ae4565b9050919050565b600081905092915050565b6000613b3d8261300f565b613b478185613b27565b9350613b5781856020860161302b565b80840191505092915050565b6000613b6f8285613b32565b9150613b7b8284613b32565b91508190509392505050565b7f54686973204e4654206973206e6f74206c697374656420666f722073616c6500600082015250565b6000613bbd601f8361301a565b9150613bc882613b87565b602082019050919050565b60006020820190508181036000830152613bec81613bb0565b9050919050565b613bfc816133d0565b8114613c0757600080fd5b50565b600081519050613c1981613bf3565b92915050565b600060208284031215613c3557613c34612f4a565b5b6000613c4384828501613c0a565b91505092915050565b600081519050919050565b600082825260208201905092915050565b6000613c7382613c4c565b613c7d8185613c57565b9350613c8d81856020860161302b565b613c9681613055565b840191505092915050565b6000608082019050613cb66000830187613156565b613cc36020830186613156565b613cd06040830185613431565b8181036060830152613ce28184613c68565b905095945050505050565b600081519050613cfc81612f80565b92915050565b600060208284031215613d1857613d17612f4a565b5b6000613d2684828501613ced565b91505092915050565b7f4e487b7100000000000000000000000000000000000000000000000000000000600052601260045260246000fd5b6000604082019050613d736000830185613156565b613d806020830184613431565b9392505050565b60008190508160005260206000209050919050565b60006020601f8301049050919050565b600082821b905092915050565b600060088302613de97fffffffffffffffffffffffffffffffffffffffffffffffffffffffffffffffff82613dac565b613df38683613dac565b95508019841693508086168417925050509392505050565b6000613e26613e21613e1c846130c1565b6138d0565b6130c1565b9050919050565b6000819050919050565b613e4083613e0b565b613e54613e4c82613e2d565b848454613db9565b825550505050565b600090565b613e69613e5c565b613e74818484613e37565b505050565b5b81811015613e9857613e8d600082613e61565b600181019050613e7a565b5050565b601f821115613edd57613eae81613d87565b613eb784613d9c565b81016020851015613ec6578190505b613eda613ed285613d9c565b830182613e79565b50505b505050565b600082821c905092915050565b6000613f0060001984600802613ee2565b1980831691505092915050565b6000613f198383613eef565b9150826002028217905092915050565b613f328261300f565b67ffffffffffffffff811115613f4b57613f4a613249565b5b613f5582546136ba565b613f60828285613e9c565b600060209050601f831160018114613f935760008415613f81578287015190505b613f8b8582613f0d565b865550613ff3565b601f198416613fa186613d87565b60005b82811015613fc957848901518255600182019150602085019450602081019050613fa4565b86831015613fe65784890151613fe2601f891682613eef565b8355505b6001600288020188555050505b505050505050565b600061400682613c4c565b6140108185613a75565b935061402081856020860161302b565b80840191505092915050565b60006140388284613ffb565b91508190509291505056fe68747470733a2f2f706c756d2d696d70726573736976652d6b696e676669736865722d3235302e6d7970696e6174612e636c6f75642f697066732f516d61694136637331385159354632794e76466b5a6263774b656644795a6956665a654e5366656258326161574ba26469706673582212203150f27c98c771bd24452247b11bc5ca52cc96deba8d2ee11e1a1662800f826964736f6c63430008160033",
  "linkReferences": {},
  "deployedLinkReferences": {}
}